:10008000008040C020A060E0109050D030B070F0F0
:10009000088848C828A868E8189858D838B878F860
:1000A000048444C424A464E4149454D434B474F490
:1000B0000C8C4CCC2CAC6CEC1C9C5CDC3CBC7CFC00
:1000C000028242C222A262E2129252D232B272F290
:1000D0000A8A4ACA2AAA6AEA1A9A5ADA3ABA7AFA00
:1000E000068646C626A666E6169656D636B676F630
:1000F0000E8E4ECE2EAE6EEE1E9E5EDE3EBE7EFEA0
:10010000018141C121A161E1119151D131B171F15F
:10011000098949C929A969E9199959D939B979F9CF
:10012000058545C525A565E5159555D535B575F5FF
:100130000D8D4DCD2DAD6DED1D9D5DDD3DBD7DFD6F
:10014000038343C323A363E3139353D333B373F3FF
:100150000B8B4BCB2BAB6BEB1B9B5BDB3BBB7BFB6F
:10016000078747C727A767E7179757D737B777F79F
:100170000F8F4FCF2FAF6FEF1F9F5FDF3FBF7FFF0F
:10018000907F957403F0907F937440F0907F98E097
:100190004404F0907F9E7404F0759813538EF81207
:1001A0000234AD08AF0AAE091201CD12021DEF20D4
:1001B000E0F9AF0AAE091201F7EF65086003E4F554
:0D01C0000B050AE50A70020509050880D24A
:1001CD008E0C8F0D8D0E907F98E054FBF07F0212F8
:1001DD000256E50CFF120256AF0D120256AF0E126B
:0A01ED000256907F98E04404F022CF
:0401F7008E0C8F0DCE
:1001FB00907F98E054FBF07F03120256E50CFF1240
:10020B000256AF0D120256120248907F98E044043A
:01021B00F0F2
:01021C0022BF
:10023400907F98E054FBF07F06120256907F98E07E
:040244004404F0225C
:10021D00907F98E054FBF07F051202561202489031
:06022D007F98E04404F09C
:0102330022A8
:0D025600C299EF90008093F5993099FD2238
:0E024800C2983098FDAF99EF90008093FF228E
:0300000002026396
:0C026300787FE4F6D8FD75810E02018062
:00000001FF
