:10008000008040C020A060E0109050D030B070F0F0
:10009000088848C828A868E8189858D838B878F860
:1000A000048444C424A464E4149454D434B474F490
:1000B0000C8C4CCC2CAC6CEC1C9C5CDC3CBC7CFC00
:1000C000028242C222A262E2129252D232B272F290
:1000D0000A8A4ACA2AAA6AEA1A9A5ADA3ABA7AFA00
:1000E000068646C626A666E6169656D636B676F630
:1000F0000E8E4ECE2EAE6EEE1E9E5EDE3EBE7EFEA0
:10010000018141C121A161E1119151D131B171F15F
:10011000098949C929A969E9199959D939B979F9CF
:10012000058545C525A565E5159555D535B575F5FF
:100130000D8D4DCD2DAD6DED1D9D5DDD3DBD7DFD6F
:10014000038343C323A363E3139353D333B373F3FF
:100150000B8B4BCB2BAB6BEB1B9B5BDB3BBB7BFB6F
:10016000078747C727A767E7179757D737B777F79F
:100170000F8F4FCF2FAF6FEF1F9F5FDF3FBF7FFF0F
:10018000751155907F957403F0907F937440F090B3
:100190007F9E7404F0759813538EF8907F98E04416
:1001A00004F07F0D1201F47F0D1201F47F0D120196
:1001B000F47F0D1201F47F0D1201F47F0D1201F492
:1001C0007F0D1201F47F0D1201F47F0D1201F47FF7
:1001D0000D1201F47F0D1201F47F0D1201F47F0D59
:1001E0001201F47F0D1201F47F0D1201F47F0D1244
:0401F00001F480FE98
:10021E008D10907F98E054FBF0EF4480FF1202495E
:0D022E00AF10120249907F98E04404F022C6
:1001F400907F98E054FBF0120249E4FF1202499008
:100204007F98E04404F0E054FBF07F0D12024912A1
:09021400023B907F98E04404F0E5
:01021D0022BE
:0D024900C299EF90008093F5993099FD2245
:0E023B00C2983098FDAF99EF90008093FF229B
:03000000020256A3
:0C025600787FE4F6D8FD7581110201806C
:00000001FF
