:1043D1004661696C656420746F206F70656E20742E
:1043E100686520706F7274210A00008040C020A0AF
:1043F10060E0109050D030B070F0088848C828A80C
:1044010068E8189858D838B878F8048444C424A4C3
:1044110064E4149454D434B474F40C8C4CCC2CACAB
:104421006CEC1C9C5CDC3CBC7CFC028242C222A287
:1044310062E2129252D232B272F20A8A4ACA2AAAAB
:104441006AEA1A9A5ADA3ABA7AFA068646C626A663
:1044510066E6169656D636B676F60E8E4ECE2EAE4B
:104461006EEE1E9E5EDE3EBE7EFE018141C121A139
:1044710061E1119151D131B171F1098949C929A97B
:1044810069E9199959D939B979F9058545C525A533
:1044910065E5159555D535B575F50D8D4DCD2DAD1B
:1044A1006DED1D9D5DDD3DBD7DFD038343C323A3F7
:1044B10063E3139353D333B373F30B8B4BCB2BAB1B
:1044C1006BEB1B9B5BDB3BBB7BFB078747C727A7D3
:1044D10067E7179757D737B777F70F8F4FCF2FAFBB
:1044E1006FEF1F9F5FDF3FBF7FFF4A6573757320CB
:0B44F1006973204C6F726421212100D0
:054C0900034000000063
:104BE000E4FDFCC3ED9FEE6480F8EC648098500710
:074BF0000DBD00010C80EC7B
:014BF700229B
:014C2600226B
:104BAB009000101240F6FF9000111240F6B5070668
:0B4BBB007E007F0180047E007F00224E
:104BF8009000111240F6FF9000101240F6C39FFF7C
:014C08002289
:044C2200124C1A22F4
:104B5300905008EFF07A507B087D017F1C124B8F39
:0F4B6300AF3FEFFB7A007D017F1C124B73AF3F1A
:014B72002220
:104BC600905008EFF0A3EDF0EFA3F0EDA3F07A50CC
:094BD6007B0A7D027F1C124B8F4B
:014BDF0022B3
:084939008E2E8F2F8C308D3182
:104941007F267E00124805AA06A9077532018A331F
:104951008934E94A45327004FBFAF922AB32AA33B1
:10496100A9348B408A418942900013E4124123907B
:104971000012E4124123900025E412412390002407
:10498100E4124123E52E852FF0124170AB32AA3398
:02499100A93447
:014993002201
:0E42A0008B2E8A2F89308F348E338D328C31E5
:1042AE00124C26124C22AB2EAA2FA93012414504D5
:1042BE00FFE4FD124BC6AB2EAA2FA930124145FFCB
:1042CE00124B53AB2EAA2FA9301241452402FFAD3B
:1042DE003B124BC6AB34AA33A932A8317F007E8481
:1042EE007D037C001249E8EFF53DAB34AA33A932C9
:1042FE00A8317F007E847D037C001249E878081285
:10430E00418F8F3EAB2EAA2FA9301241452403FFB9
:10431E007D80124BC6AB2EAA2FA930124145FFADA0
:10432E003D124BC6AB2EAA2FA93012414504FFAD4C
:10433E003E124BC6AB2EAA2FA9301241452403FFC5
:10434E00E4FD124BC6E535B44505753C188021E5F4
:10435E0035B44F05753C088017E535B44D05753CF1
:10436E0028800DE535B45305753C388003E4F53CE3
:10437E00E539640245387003433C04E5376406456D
:10438E00367005433C018018E537640745367005E5
:10439E00433C02800BE537640845367003433C030B
:1043AE00AB2EAA2FA9301241452403FFAD3C124B70
:1043BE00C6AB2EAA2FA9301241452404FFE4FD12EC
:0243CE004BC6DC
:0143D00022CA
:104A2C008B2E8A2F893012414504FFE4FD124BC6B0
:104A3C00AB2EAA2FA9301241452404FFE4FD124BE2
:104A4C00C6AB2EAA2FA930124145240EFF7D0112B0
:0A4A5C004BC6AE2FAF301246042205
:1047080078187C007D007BFF7A4479EB7E007F116E
:104718001240D0E4FDFCFFFE1249398B2B8A2C890C
:104728002DE94A4B70097BFF7A4379D1124B02ABD2
:104738002BAA2CA92D75354E753600753708753896
:1047480000753901753A00753B017F007EE17D00F7
:104758007C001242A0AB2BAA2CA92D12414524049F
:10476800FF7D10124BC6E4F529F52AAB2BAA2CA91C
:104778002D124145FF7418252AF8E6FD124BC6ABE9
:104788002BAA2CA92D1241452405FF124B53EF30BB
:10479800E0EDAB2BAA2CA92D124145FF124B537407
:1047A80008252AF8A607052AE52A70020529D394C0
:1047B80010E5296480948040B2E4F529F52A74084C
:1047C800252AF8E6FF124B2C7F3D124B2C74182536
:1047D8002AF8E6FF124B2C7F0A124B2C052AE52AF1
:1047E80070020529D39410E5296480948040CFABEA
:0C47F8002BAA2CA92D124A2C7E007F0059
:014804002291
:084C1A00E4F550D2E9D2AF220B
:104A6600907FA5E020E6F9C2E9907FA5E04480F0BA
:104A7600EF25E0907FA6F0907FA5E030E0F9907FEB
:104A8600A5E04440F0907FA5E020E6F9907FA5E000
:064A960030E1D6D2E92256
:104AD000A907907FA5E020E6F9E5507023907FA517
:104AE000E04480F0E925E0907FA6F08D4BAF03A96C
:104AF00007754C018A4D894EE4F54F755001D3225C
:024B0000C322CE
:104A9C00A907907FA5E020E6F9E5507025907FA549
:104AAC00E04480F0E925E04401907FA6F08D4BAF07
:104ABC0003A907754C018A4D894EE4F54F755003D7
:044ACC00D322C3220C
:03004B000244FC70
:1044FC00C0E0C083C082C085C084C086758600C001
:10450C00D075D000C000C001C002C003C006C007F7
:10451C00907FA5E030E2067550060245E6907FA537
:10452C00E020E10CE550640260067550070245E698
:10453C00E55024FE605F14603624FE70030245D7FC
:10454C0024FC70030245E3240860030245E6AB4CEF
:10455C00AA4DA94EAF4F054F8F827583001240F6BE
:10456C00907FA6F0E54F654B7070755005806B9091
:10457C007FA6E0AB4CAA4DA94EAE4F8E8275830040
:10458C00124123755002E54B6401704E907FA5E0FB
:10459C004420F08045E54B24FEB54F07907FA5E005
:1045AC004420F0E54B14B54F0A907FA5E04440F051
:1045BC00755000907FA6E0AB4CAA4DA94EAE4F8E25
:1045CC0082758300124123054F800F907FA5E04434
:1045DC0040F075500080037550005391DFD007D028
:1045EC0006D003D002D001D000D0D0D086D084D059
:0845FC0085D082D083D0E032AB
:104B7300124A9CE55024FA600E146006240770F371
:0C4B8300D322E4F550D322E4F550D322F5
:104B8F00124AD0E55024FA600E146006240770F321
:0C4B9F00D322E4F550D322E4F550D322D9
:030000000248AD06
:0C48AD00787FE4F6D8FD7581500248F4D5
:10400000E709F608DFFA8046E709F208DFFA803EA2
:1040100088828C83E709F0A3DFFA8032E309F6088F
:10402000DFFA8078E309F208DFFA807088828C83F7
:10403000E309F0A3DFFA806489828A83E0A3F608AB
:10404000DFFA805889828A83E0A3F208DFFA804C85
:1040500080D280FA80C680D4806980F2803380105C
:1040600080A680EA809A80A880DA80E280CA8033C5
:1040700089828A83ECFAE493A3C8C582C8CCC5833D
:10408000CCF0A3C8C582C8CCC583CCDFE9DEE7800D
:104090000D89828A83E493A3F608DFF9ECFAA9F08C
:1040A000EDFB2289828A83ECFAE0A3C8C582C8CCE2
:1040B000C583CCF0A3C8C582C8CCC583CCDFEADEFB
:1040C000E880DB89828A83E493A3F208DFF980CC5D
:1040D00088F0EF60010E4E60C388F0ED2402B40456
:1040E0000050B9F582EB2402B4040050AF232345FD
:0640F00082239040507392
:1040F600BB010CE58229F582E5833AF583E022507F
:1041060006E92582F8E622BBFE06E92582F8E222C8
:0D411600E58229F582E5833AF583E49322E2
:10412300F8BB010DE58229F582E5833AF583E8F0D2
:10413300225006E92582C8F622BBFE05E92582C87E
:02414300F22266
:10414500BB010A89828A83E0F5F0A3E02250068745
:10415500F009E71922BBFE07E3F5F009E319228907
:0B416500828A83E493F5F0740193223A
:10417000BB010A89828A83F0E5F0A3F0225006F79A
:0F41800009A7F01922BBFE06F3E5F009F3192297
:1049E800C2D5E830E70FB2D5E4C39BFBE49AFAE4FA
:1049F80099F9E498F8EC30E717B2D5124A1E12423A
:104A08000EE4C39BFBE49AFAE499F9E498F880036E
:104A180012420E30D50DE4C39FFFE49EFEE49DFDD7
:044A2800E49CFC22EC
:10418F00E86010ECA2E713FCED13FDEE13FEEF1346
:04419F00FFD8F02233
:104B2C00EFB40A07740D124B37740A309811A89918
:104B3C00B8130CC2983098FDA899C298B811F630E9
:074B4C0099FDC299F59922C1
:104B02001241A3601CFF09E970010AC0E0EAC0E09B
:104B1200EBC0E0124B2CD0E0FBD0E0FAD0E0F98001
:0A4B2200DF7F0A124B2CE4FEFF2295
:104805008E358F36753750753800853882853783F4
:10481500E0FEA3E0FDCCEECC4C7003FEFF228D82C2
:104825008C83A3A3E0FEA3E0FFC39536EE95355038
:10483500068C378D3880D3C3EF9536F53AEE95352E
:10484500F539C3E53A9410E5399400501B8D828CF7
:1048550083E0FFA3E0853882853783CFF0A3EFF0AF
:10486500ED2404FFE43CFE2274FC253AF53A74FF7E
:104875003539F5398D828C83A3A3F0A3E53AF0EDA4
:104885002404FFE43CFEEF253AF538EE3539F537DB
:10489500853882F583A3A3E535F0A3E536F0E53841
:0848A5002404FFE43537FE2274
:10460400EF4E7003024707905002E07002A3E0707F
:1046140003024707CDEFCDCCEECCED24FCFDEC340A
:10462400FFFC753150753200853282853183E0FAA2
:10463400A3E08A33F53445336011D3E5349FE53381
:104644009E500885333185343280DDE5344533604E
:104654004A8D828C83A3A3E0FAA3E02FFFEA3EFEF7
:10466400EF65347003EE65337031853482853383AE
:10467400A3A3E0FEA3E02404FFE43E8D828C83A385
:10468400A38FF01241BC853482853383E0FFA3E01D
:104694008D828C83CFF0A3EFF0800B8D828C83E529
:1046A40033F0A3E534F0853282853183A3A3E0FEA1
:1046B400A3E0FF2532FFEE3531CF2404CF3400FED2
:1046C400EF6D7002EE6C70308D828C83A3A3E0FEDC
:1046D400A3E02404FFE43E853282853183A3A38FC3
:1046E400F01241BC8D828C83E0FFA3E08532828589
:1046F4003183CFF0A3EFF022853282853183ECF051
:04470400A3EDF0220F
:1048B900024708E493A3F8E493A34003F68001F2C6
:1048C90008DFF48029E493A3F85407240CC8C33300
:1048D900C4540F4420C8834004F456800146F6DFCF
:1048E900E4800B0102040810204080904C09E47E0A
:1048F900019360BCA3FF543F30E509541FFEE493C4
:10490900A360010ECF54C025E060A840B8E493A38A
:10491900FAE493A3F8E493A3C8C582C8CAC583CAB5
:10492900F0A3C8C582C8CAC583CADFE9DEE780BE6D
:014C0E0000A5
:1041A300BB010689828A83E0225002E722BBFE021A
:0941B300E32289828A83E493224D
:1041BC00C5F0F8A3E028F0C5F0F8E582158270028E
:0641CC001583E038F0222B
:1041D20075F008758200EF2FFFEE33FECD33CDCCA4
:1041E20033CCC58233C5829BED9AEC99E582984027
:1041F2000CF582EE9BFEED9AFDEC99FC0FD5F0D604
:10420200E4CEFBE4CDFAE4CCF9A88222B800C1B92D
:104212000059BA002DEC8BF084CFCECDFCE5F0CB6B
:10422200F97818EF2FFFEE33FEED33FDEC33FCEBA4
:1042320033FB10D703994004EB99FB0FD8E5E4F95F
:10424200FA227818EF2FFFEE33FEED33FDEC33FC4C
:10425200C933C910D7059BE99A4007EC9BFCE99A40
:10426200F90FD8E0E4C9FAE4CCFB2275F010EF2F85
:10427200FFEE33FEED33FDCC33CCC833C810D70785
:104282009BEC9AE899400AED9BFDEC9AFCE899F8C0
:0E4292000FD5F0DAE4CDFBE4CCFAE4C8F92253
:0B4C0F00485000000000000000000002
:10499400CBEFCBCAEECAC3ED9428EC940050057E4D
:1049A400007F0022EB4A7008FA7B01ED1D70011CA8
:1049B400905000EAF0A3EBF0A3ECF0A3EDF09050DC
:1049C40000E0FEA3E0FFF5828E83E4F0A3F0ED2483
:1049D400FCFDEC34FF8F828E83A3A3F0A3EDF07E65
:0449E400FF7FFF2230
:00000001FF
