:1044CE00008040C020A060E0109050D030B070F05E
:1044DE00088848C828A868E8189858D838B878F8CE
:1044EE00048444C424A464E4149454D434B474F4FE
:1044FE000C8C4CCC2CAC6CEC1C9C5CDC3CBC7CFC6E
:10450E00028242C222A262E2129252D232B272F2FD
:10451E000A8A4ACA2AAA6AEA1A9A5ADA3ABA7AFA6D
:10452E00068646C626A666E6169656D636B676F69D
:10453E000E8E4ECE2EAE6EEE1E9E5EDE3EBE7EFE0D
:10454E00018141C121A161E1119151D131B171F1CD
:10455E00098949C929A969E9199959D939B979F93D
:10456E00058545C525A565E5159555D535B575F56D
:10457E000D8D4DCD2DAD6DED1D9D5DDD3DBD7DFDDD
:10458E00038343C323A363E3139353D333B373F36D
:10459E000B8B4BCB2BAB6BEB1B9B5BDB3BBB7BFBDD
:1045AE00078747C727A767E7179757D737B777F70D
:1045BE000F8F4FCF2FAF6FEF1F9F5FDF3FBF7FFF7D
:09498800031900000041500C0766
:10495800E4FDFCC3ED9FEE6480F8EC64809850079A
:074968000DBD00010C80EC05
:01496F002225
:0149BA0022DA
:10492300900010124000FF900011124000B50706DE
:0B4933007E007F0180047E007F0022D8
:10499D00900011124000FF900010124000C39FFFC5
:0149AD0022E7
:0449B6001249AE22D2
:1048CB00905008EFF07A507B087D017F1C1249074E
:0F48DB00AF40EFFB7A007D017F1C1248EBAF402E
:0148EA0022AB
:10493E00905008EFF0A3EDF0EFA3F0EDA3F07A5056
:09494E007B0A7D027F1C1249075F
:01495700223D
:084702008E248F258C268D27E3
:10470A007F267E001245CEAA06A9077528018A29A6
:10471A00892AE94A45287004FBFAF922AB28AA2912
:10472A00A92A8B198A1A891B900013E412402D902A
:10473A000012E412402D900025E412402D9000242E
:10474A00E412402DE5248525F012407AAB28AA29E7
:02475A00A92A8A
:01475C00223A
:0E4191008B088A09890A8F0E8E0D8D0C8C0BFF
:10419F001249BA1249B6AB08AA09A90A12404F042C
:1041AF00FFE4FD12493EAB08AA09A90A12404FFFCE
:1041BF001248CBAB08AA09A90A12404F2402FFAD3F
:1041CF001512493EAB0EAA0DA90CA80B7F007E84D9
:1041DF007D037C001247B1EFF517AB0EAA0DA90CAA
:1041EF00A80B7F007E847D037C001247B1780812F4
:1041FF0040998F18AB08AA09A90A12404F2403FF50
:10420F007D8012493EAB08AA09A90A12404FFFADA3
:10421F001712493EAB08AA09A90A12404F04FFAD75
:10422F001812493EAB08AA09A90A12404F2403FFEE
:10423F00E4FD12493EE50FB445057516188021E5DA
:10424F000FB44F057516088017E50FB44D05751699
:10425F0028800DE50FB453057516388003E4F51665
:10426F00E513640245127003431604E51164064515
:10427F001070054316018018E5116407451070058D
:10428F00431602800BE511640845107003431603B3
:10429F00AB08AA09A90A12404F2403FFAD16124911
:1042AF003EAB08AA09A90A12404F2404FFE4FD12ED
:0242BF00493E76
:0142C10022DA
:1047F5008B3B8A3C893D12404F04FFE4FD12493E44
:10480500AB3BAA3CA93D12404F2404FFE4FD1249ED
:104815003EAB3BAA3CA93D12404F240EFF7D011241
:0A482500493EAE3CAF3D1243CA22EB
:104970001249B690500CE0FF7D1212493E90500C47
:07498000E0FF1248CB80FEAE
:01498700220D
:0849AE00E4F530D2E9D2AF229A
:10482F00907FA5E020E6F9C2E9907FA5E04480F0F3
:10483F00EF25E0907FA6F0907FA5E030E0F9907F24
:10484F00A5E04440F0907FA5E020E6F9907FA5E039
:06485F0030E1D6D2E9228F
:10489900A907907FA5E020E6F9E5307023907FA570
:1048A900E04480F0E925E0907FA6F08D2BAF03A9C5
:1048B90007752C018A2D892EE4F52F753001D32235
:0248C900C32208
:10486500A907907FA5E020E6F9E5307025907FA5A2
:10487500E04480F0E925E04401907FA6F08D2BAF60
:1048850003A907752C018A2D892EE4F52F753003B0
:04489500D322C32245
:03004B000242C2AC
:1042C200C0E0C083C082C085C084C086758600C03D
:1042D200D075D000C000C001C002C003C006C00734
:1042E200907FA5E030E2067530060243AC907FA5D0
:1042F200E020E10CE530640260067530070243AC51
:10430200E53024FE605F14603624FE700302439D94
:1043120024FC70030243A9240860030243ACAB2CC3
:10432200AA2DA92EAF2F052F8F8275830012400070
:10433200907FA6F0E52F652B7070753005806B902D
:104342007FA6E0AB2CAA2DA92EAE2F8E82758300FC
:1043520012402D753002E52B6401704E907FA5E06E
:104362004420F08045E52B24FEB52F07907FA5E081
:104372004420F0E52B14B52F0A907FA5E04440F0CD
:10438200753000907FA6E0AB2CAA2DA92EAE2F8E01
:104392008275830012402D052F800F907FA5E04487
:1043A20040F075300080037530005391DFD007D0A4
:1043B20006D003D002D001D000D0D0D086D084D095
:0843C20085D082D083D0E032E7
:1048EB00124865E53024FA600E146006240770F355
:0C48FB00D322E4F530D322E4F530D322C0
:10490700124899E53024FA600E146006240770F304
:0C491700D322E4F530D322E4F530D322A3
:030000000246763F
:0C467600787FE4F6D8FD7581400246BD57
:10400000BB010CE58229F582E5833AF583E0225075
:1040100006E92582F8E622BBFE06E92582F8E222BF
:0D402000E58229F582E5833AF583E49322D9
:10402D00F8BB010DE58229F582E5833AF583E8F0C9
:10403D00225006E92582C8F622BBFE05E92582C875
:02404D00F2225D
:10404F00BB010A89828A83E0F5F0A3E0225006873C
:10405F00F009E71922BBFE07E3F5F009E3192289FE
:0B406F00828A83E493F5F07401932231
:10407A00BB010A89828A83F0E5F0A3F0225006F791
:0F408A0009A7F01922BBFE06F3E5F009F319228E
:1047B100C2D5E830E70FB2D5E4C39BFBE49AFAE433
:1047C10099F9E498F8EC30E717B2D51247E71240AF
:1047D100FFE4C39BFBE49AFAE499F9E498F88003B7
:1047E1001240FF30D50DE4C39FFFE49EFEE49DFD22
:0447F100E49CFC2226
:10409900E86010ECA2E713FCED13FDEE13FEEF133D
:0440A900FFD8F0222A
:1045CE008E318F3275335075340085348285338346
:1045DE00E0FEA3E0FDCCEECC4C7003FEFF228D82FC
:1045EE008C83A3A3E0FEA3E0FFC39532EE9531507A
:1045FE00068C338D3480D3C3EF9532F536EE95317C
:10460E00F535C3E5369410E5359400501B8D828C3C
:10461E0083E0FFA3E0853482853383CFF0A3EFF0F0
:10462E00ED2404FFE43CFE2274FC2536F53674FFBF
:10463E003535F5358D828C83A3A3F0A3E536F0EDE9
:10464E002404FFE43CFEEF2536F534EE3535F53324
:10465E00853482F583A3A3E531F0A3E532F0E5348A
:08466E002404FFE43533FE22B1
:1043CA00EF4E70030244CD905002E07002A3E070F9
:1043DA00030244CDCDEFCDCCEECCED24FCFDEC3484
:1043EA00FFFC753750753800853882853783E0FAC7
:1043FA00A3E08A39F53A45396011D3E53A9FE539A0
:10440A009E5008853937853A3880DDE53A45396066
:10441A004A8D828C83A3A3E0FAA3E02FFFEA3EFE33
:10442A00EF653A7003EE65397031853A82853983D2
:10443A00A3A3E0FEA3E02404FFE43E8D828C83A3C1
:10444A00A38FF01240AD853A82853983E0FFA3E05D
:10445A008D828C83CFF0A3EFF0800B8D828C83E565
:10446A0039F0A3E53AF0853882853783A3A3E0FEC5
:10447A00A3E0FF2538FFEE3537CF2404CF3400FE02
:10448A00EF6D7002EE6C70308D828C83A3A3E0FE18
:10449A00A3E02404FFE43E853882853783A3A38FF3
:1044AA00F01240AD8D828C83E0FFA3E085388285CF
:1044BA003783CFF0A3EFF022853882853783ECF07B
:0444CA00A3EDF0224C
:10468200024970E493A3F8E493A34003F68001F295
:1046920008DFF48029E493A3F85407240CC8C33339
:1046A200C4540F4420C8834004F456800146F6DF08
:1046B200E4800B0102040810204080904988E47EC7
:1046C200019360BCA3FF543F30E509541FFEE493FD
:1046D200A360010ECF54C025E060A840B8E493A3C4
:1046E200FAE493A3F8E493A3C8C582C8CAC583CAEF
:1046F200F0A3C8C582C8CAC583CADFE9DEE780BEA7
:014991000025
:1040AD00C5F0F8A3E028F0C5F0F8E582158270029E
:0640BD001583E038F0223B
:1040C30075F008758200EF2FFFEE33FECD33CDCCB4
:1040D30033CCC58233C5829BED9AEC99E582984037
:1040E3000CF582EE9BFEED9AFDEC99FC0FD5F0D614
:1040F300E4CEFBE4CDFAE4CCF9A88222B800C1B93E
:104103000059BA002DEC8BF084CFCECDFCE5F0CB7B
:10411300F97818EF2FFFEE33FEED33FDEC33FCEBB4
:1041230033FB10D703994004EB99FB0FD8E5E4F96F
:10413300FA227818EF2FFFEE33FEED33FDEC33FC5C
:10414300C933C910D7059BE99A4007EC9BFCE99A50
:10415300F90FD8E0E4C9FAE4CCFB2275F010EF2F95
:10416300FFEE33FEED33FDCC33CCC833C810D70795
:104173009BEC9AE899400AED9BFDEC9AFCE899F8D0
:0E4183000FD5F0DAE4CDFBE4CCFAE4C8F92263
:0B499200485000000000000000000082
:10475D00CBEFCBCAEECAC3ED9428EC940050057E86
:10476D00007F0022EB4A7008FA7B01ED1D70011CE1
:10477D00905000EAF0A3EBF0A3ECF0A3EDF0905015
:10478D0000E0FEA3E0FFF5828E83E4F0A3F0ED24BC
:10479D00FCFDEC34FF8F828E83A3A3F0A3EDF07E9E
:0447AD00FF7FFF2269
:00000001FF
