:10000300900000E054F0F0900000E04407F0E0546A
:10001300F7F0900000E04401F0538EF812010CADAC
:1000230008AF0AAE0912004D1200D7EF20E0F9AF76
:100033000AAE0912007EEF65086003E4F50B050ABA
:0A004300E50A70020509050880D2E5
:10004D008E0C8F0D8D0E900000E054F9F0E054FEF3
:10005D00F07F021200F2E50CFF3395E01200F2AFD3
:10006D000D1200F2AF0E1200F2900000E04401F00C
:01007D002260
:04007E008E0C8F0D48
:10008200900000E054F9F0E054FEF07F031200F219
:10009200E50CFF3395E01200F2AF0D1200F21200F0
:0800A200AB900000E04401F006
:0100AA002233
:10010C00900000E054F9F0E054FEF07F061200F28B
:08011C00900000E04401F02214
:1000D700900000E054F9F0E054FEF07F051200F2C2
:0A00E7001200AB900000E04401F0AD
:0100F10022EC
:1000AB00907F98E0FC4402FDEC54FDFC0586907FAC
:1000BB009B05867E08EDF00586E054087003C3802F
:0C00CB0001D30586ECF0EF33FFDEEA22E3
:1000F200907F987E08EF33FFE0400454FB80024477
:0A010200044402F054FDF0DEEC228C
:03000000020124D6
:0C012400787FE4F6D8FD75810F0200031F
:00000001FF
