:0D430C00425001072241500007020E5001EF
:1042F400E4FDFCC3ED9FEE6480F8EC648098500705
:074304000DBD00010C80EC6F
:01430B00228F
:1041E30012431A7A507B007D017F1C1242D87A5009
:1041F3007B037D017F1C1242BCAB0FAA0E7D027FA5
:104203001C1242D87A507B007D017F1C1242D87A5F
:0D421300507B037D017F1C1242BC80FE2207
:08431A00E4F50DD2E9D2AF2257
:10422000907FA5E020E6F9C2E9907FA5E04480F008
:10423000EF25E0907FA6F0907FA5E030E0F9907F39
:10424000A5E04440F0907FA5E020E6F9907FA5E04E
:0642500030E1D6D2E922A4
:10428A00A907907FA5E020E6F9E50D7023907FA5A8
:10429A00E04480F0E925E0907FA6F08D08AF03A9FD
:1042AA00077509018A0A890BE4F50C750D01D322F9
:0242BA00C3221D
:10425600A907907FA5E020E6F9E50D7025907FA5DA
:10426600E04480F0E925E04401907FA6F08D08AF98
:1042760003A9077509018A0A890BE4F50C750D0374
:04428600D322C3225A
:03004B0002400070
:10400000C0E0C083C082C085C084C086758600C001
:10401000D075D000C000C001C002C003C006C007F8
:10402000907FA5E030E206750D060240EA907FA57C
:10403000E020E10CE50D64026006750D070240EA20
:10404000E50D24FE605F14603624FE70030240DB41
:1040500024FC70030240E7240860030240EAAB0935
:10406000AA0AA90BAF0C050C8F827583001241942C
:10407000907FA6F0E50C65087070750D05806B905B
:104080007FA6E0AB09AA0AA90BAE0C8E827583004D
:104090001241C1750D02E5086401704E907FA5E0E4
:1040A0004420F08045E50824FEB50C07907FA5E08C
:1040B0004420F0E50814B50C0A907FA5E04440F0D8
:1040C000750D00907FA6E0AB09AA0AA90BAE0C8E75
:1040D000827583001241C1050C800F907FA5E044DA
:1040E00040F0750D008003750D005391DFD007D0AF
:1040F00006D003D002D001D000D0D0D086D084D05A
:0841000085D082D083D0E032AB
:1042BC00124256E50D24FA600E146006240770F3C2
:0C42CC00D322E4F50DD322E4F50DD3223B
:1042D80012428AE50D24FA600E146006240770F372
:0C42E800D322E4F50DD322E4F50DD3221F
:03000000024108B2
:0C410800787FE4F6D8FD75810F02414F6E
:10419400BB010CE58229F582E5833AF583E02250E0
:1041A40006E92582F8E622BBFE06E92582F8E2222A
:0D41B400E58229F582E5833AF583E4932244
:1041C100F8BB010DE58229F582E5833AF583E8F034
:1041D100225006E92582C8F622BBFE05E92582C8E0
:0241E100F222C8
:104114000241E3E493A3F8E493A34003F68001F29D
:1041240008DFF48029E493A3F85407240CC8C333AC
:10413400C4540F4420C8834004F456800146F6DF7B
:10414400E4800B010204081020408090430CE47EBC
:10415400019360BCA3FF543F30E509541FFEE49370
:10416400A360010ECF54C025E060A840B8E493A337
:10417400FAE493A3F8E493A3C8C582C8CAC583CA62
:10418400F0A3C8C582C8CAC583CADFE9DEE780BE1A
:0143190000A3
:00000001FF
