:10008000907F95E054F0F0907F9EE04407F0E054BC
:10009000F7F0907F98E04401F0538EF8120190AD94
:1000A00008AF0AAE091200CA120175EF20E0F9AFDD
:1000B0000AAE09120126EF65086003E4F50B050A94
:0A00C000E50A70020509050880D268
:1000CA008E0C8F0D8D0E907F98E054F9F0E054FE5F
:1000DA00F07F02120150E50CFF120150AF0D120120
:0E00EA0050AF0E120150907F98E04401F022BA
:040126008E0C8F0D9F
:10012A00907F98E054F9F0E054FEF07F03120150FA
:10013A00E50CFF120150AF0D1201501200F8907F2A
:05014A0098E04401F003
:01014F00228D
:10019000907F98E054F9F0E054FEF07F0612015091
:0801A000907F98E04401F02279
:10017500907F98E054F9F0E054FEF07F05120150AD
:0A0185001200F8907F98E04401F0AA
:01018F00224D
:1000F800907F98E0FC4402FDEC54FDFC000005866E
:10010800907F9B05867E08EDF00586E05408700315
:0E011800C38001D30586ECF0EF33FFDEEA2250
:10015000907F987E08EF33FFE0400454FB80024418
:10016000044402F000000000000000000000005401
:05017000FDF0DEE122BC
:030000000201A852
:0C01A800787FE4F6D8FD75810F0200801E
:00000001FF
