:10008000907F95E054F0F0907F9EE04407F0E054BC
:10009000F7F0907F98E04401F0538EF8120183ADA1
:1000A00008AF0AAE091200CA12014EEF20E0F9AF04
:1000B0000AAE09120124EF65086003E4F50B050A96
:0A00C000E50A70020509050880D268
:1000CA008E0C8F0D8D0E907F98E054F9F0E054FE5F
:1000DA00F07F02120169E50CFF120169AF0D1201EE
:0E00EA0069AF0E120169907F98E04401F02288
:040124008E0C8F0DA1
:10012800907F98E054F9F0E054FEF07F03120169E3
:10013800E50CFF120169AF0D1201691200F8907FFA
:0501480098E04401F005
:01014D00228F
:10018300907F98E054F9F0E054FEF07F0612016985
:08019300907F98E04401F02286
:10014E00907F98E054F9F0E054FEF07F05120169BB
:0A015E001200F8907F98E04401F0D1
:010168002274
:1000F800907F98E0FC4402FDEC54FDFC0586907F5F
:100108009B05867E08EDF00586E054087003C380E1
:0C01180001D30586ECF0EF33FFDEEA2295
:10016900907F987E08EF33FFE0400454FB800244FF
:0A017900044402F054FDF0DEEC2215
:0300000002019B5F
:0C019B00787FE4F6D8FD75810F0200802B
:00000001FF
