:0548A3000333000000DA
:10487A00E4FDFCC3ED9FEE6480F8EC648098500779
:07488A000DBD00010C80ECE4
:014891002204
:0148CE0022C7
:10485F00900010124000FF900011124000B50706A3
:0B486F007E007F0180047E007F00229D
:10489200900011124000FF900010124000C39FFFD1
:0148A20022F3
:0448CA001248C222AC
:10480A00EFFB7A007D017F1C124843AF38EFFB7A39
:0C481A00007D017F1C124827AF387E0093
:01482600226F
:0D48B400E4FEEFFB7A007D027F1C124843FA
:0148C10022D4
:084602008E198F1A8C1B8D1C10
:10460A007F267E001244CEAA06A907751D018A1EBE
:10461A00891FE94A451D7004FBFAF922AB1DAA1E3F
:10462A00A91F8B338A348935900013E412402D90E8
:10463A000012E412402D900025E412402D9000242F
:10464A00E412402DE519851AF012407AAB1DAA1E14
:02465A00A91F96
:01465C00223B
:0E4191008B088A09890A8F0E8E0D8D0C8C0BFF
:10419F001248CE1248CAAB08AA09A90A12404F0406
:1041AF00FFE4FD1248B4AB08AA09A90A12404FFF59
:1041BF0012480AAB08AA09A90A12404F2402FFAD00
:1041CF00151248B4AB0EAA0DA90CA80B7F007E8464
:1041DF007D037C001246B1EFF517AB0EAA0DA90CAB
:1041EF00A80B7F007E847D037C001246B1780812F5
:1041FF0040998F18AB08AA09A90A12404F2403FF50
:10420F007D801248B4AB08AA09A90A12404FFFAD2E
:10421F00171248B4AB08AA09A90A12404F04FFAD00
:10422F00181248B4AB08AA09A90A12404F2403FF79
:10423F00E4FD1248B4E50FB445057516188021E565
:10424F000FB44F057516088017E50FB44D05751699
:10425F0028800DE50FB453057516388003E4F51665
:10426F00E513640245127003431604E51164064515
:10427F001070054316018018E5116407451070058D
:10428F00431602800BE511640845107003431603B3
:10429F00AB08AA09A90A12404F2403FFAD16124812
:1042AF00B4AB08AA09A90A12404F2404FFE4FD1277
:0242BF0048B401
:0142C10022DA
:104734008B308A31893212404F04FFE4FD1248B4B1
:10474400AB30AA31A93212404F2404FFE4FD1248D1
:10475400B4AB30AA31A93212404F240EFF7D0112AE
:0A47640048B4AE31AF321243CA224E
:1046F5001248CA7F0D12480A7F0D12480A7F0D1213
:10470500480A7F0D12480A7F0D12480A7F0D12488C
:104715000A7F0D12480A7F0D12480A7F0D12480ABA
:0E4725007F0D12480A7F8C7E0012487A7F00BA
:014733002263
:0848C200E4F525D2E9D2AF2292
:10476E00907FA5E020E6F9C2E9907FA5E04480F0B5
:10477E00EF25E0907FA6F0907FA5E030E0F9907FE6
:10478E00A5E04440F0907FA5E020E6F9907FA5E0FB
:06479E0030E1D6D2E92251
:1047D800A907907FA5E020E6F9E5257023907FA53D
:1047E800E04480F0E925E0907FA6F08D20AF03A992
:1047F800077521018A228923E4F524752501D3222E
:02480800C322C9
:1047A400A907907FA5E020E6F9E5257025907FA56F
:1047B400E04480F0E925E04401907FA6F08D20AF2D
:1047C40003A9077521018A228923E4F524752503A9
:0447D400D322C32207
:03004B000242C2AC
:1042C200C0E0C083C082C085C084C086758600C03D
:1042D200D075D000C000C001C002C003C006C00734
:1042E200907FA5E030E2067525060243AC907FA5DB
:1042F200E020E10CE525640260067525070243AC67
:10430200E52524FE605F14603624FE700302439D9F
:1043120024FC70030243A9240860030243ACAB21CE
:10432200AA22A923AF2405248F827583001240009C
:10433200907FA6F0E52465207070752505806B904E
:104342007FA6E0AB21AA22A923AE248E8275830028
:1043520012402D752502E5206401704E907FA5E084
:104362004420F08045E52024FEB52407907FA5E097
:104372004420F0E52014B5240A907FA5E04440F0E3
:10438200752500907FA6E0AB21AA22A923AE248E38
:104392008275830012402D0524800F907FA5E04492
:1043A20040F075250080037525005391DFD007D0BA
:1043B20006D003D002D001D000D0D0D086D084D095
:0843C20085D082D083D0E032E7
:104827001247A4E52524FA600E146006240770F3E6
:0C483700D322E4F525D322E4F525D3229A
:104843001247D8E52524FA600E146006240770F396
:0C485300D322E4F525D322E4F525D3227E
:0300000002457640
:0C457600787FE4F6D8FD7581380245BD61
:10400000BB010CE58229F582E5833AF583E0225075
:1040100006E92582F8E622BBFE06E92582F8E222BF
:0D402000E58229F582E5833AF583E49322D9
:10402D00F8BB010DE58229F582E5833AF583E8F0C9
:10403D00225006E92582C8F622BBFE05E92582C875
:02404D00F2225D
:10404F00BB010A89828A83E0F5F0A3E0225006873C
:10405F00F009E71922BBFE07E3F5F009E3192289FE
:0B406F00828A83E493F5F07401932231
:10407A00BB010A89828A83F0E5F0A3F0225006F791
:0F408A0009A7F01922BBFE06F3E5F009F319228E
:1046B100C2D5E830E70FB2D5E4C39BFBE49AFAE434
:1046C10099F9E498F8EC30E717B2D51246E71240B1
:1046D100FFE4C39BFBE49AFAE499F9E498F88003B8
:1046E1001240FF30D50DE4C39FFFE49EFEE49DFD23
:0446F100E49CFC2227
:10409900E86010ECA2E713FCED13FDEE13FEEF133D
:0440A900FFD8F0222A
:1044CE008E268F2775285075290085298285288389
:1044DE00E0FEA3E0FDCCEECC4C7003FEFF228D82FD
:1044EE008C83A3A3E0FEA3E0FFC39527EE95265091
:1044FE00068C288D2980D3C3EF9527F52BEE9526B4
:10450E00F52AC3E52B9410E52A9400501B8D828C5E
:10451E0083E0FFA3E0852982852883CFF0A3EFF007
:10452E00ED2404FFE43CFE2274FC252BF52B74FFD6
:10453E00352AF52A8D828C83A3A3F0A3E52BF0ED0B
:10454E002404FFE43CFEEF252BF529EE352AF52851
:10455E00852982F583A3A3E526F0A3E527F0E529B7
:08456E002404FFE43528FE22BD
:1043CA00EF4E70030244CD905002E07002A3E070F9
:1043DA00030244CDCDEFCDCCEECCED24FCFDEC3484
:1043EA00FFFC752C50752D00852D82852C83E0FAF3
:1043FA00A3E08A2EF52F452E6011D3E52F9FE52ED7
:10440A009E5008852E2C852F2D80DDE52F452E60A8
:10441A004A8D828C83A3A3E0FAA3E02FFFEA3EFE33
:10442A00EF652F7003EE652E7031852F82852E83FE
:10443A00A3A3E0FEA3E02404FFE43E8D828C83A3C1
:10444A00A38FF01240AD852F82852E83E0FFA3E073
:10445A008D828C83CFF0A3EFF0800B8D828C83E565
:10446A002EF0A3E52FF0852D82852C83A3A3E0FEF1
:10447A00A3E0FF252DFFEE352CCF2404CF3400FE18
:10448A00EF6D7002EE6C70308D828C83A3A3E0FE18
:10449A00A3E02404FFE43E852D82852C83A3A38F09
:1044AA00F01240AD8D828C83E0FFA3E0852D8285DA
:1044BA002C83CFF0A3EFF022852D82852C83ECF09C
:0444CA00A3EDF0224C
:104582000246F5E493A3F8E493A34003F68001F214
:1045920008DFF48029E493A3F85407240CC8C3333A
:1045A200C4540F4420C8834004F456800146F6DF09
:1045B200E4800B01020408102040809048A3E47EAE
:1045C200019360BCA3FF543F30E509541FFEE493FE
:1045D200A360010ECF54C025E060A840B8E493A3C5
:1045E200FAE493A3F8E493A3C8C582C8CAC583CAF0
:1045F200F0A3C8C582C8CAC583CADFE9DEE780BEA8
:0148A800000F
:1040AD00C5F0F8A3E028F0C5F0F8E582158270029E
:0640BD001583E038F0223B
:1040C30075F008758200EF2FFFEE33FECD33CDCCB4
:1040D30033CCC58233C5829BED9AEC99E582984037
:1040E3000CF582EE9BFEED9AFDEC99FC0FD5F0D614
:1040F300E4CEFBE4CDFAE4CCF9A88222B800C1B93E
:104103000059BA002DEC8BF084CFCECDFCE5F0CB7B
:10411300F97818EF2FFFEE33FEED33FDEC33FCEBB4
:1041230033FB10D703994004EB99FB0FD8E5E4F96F
:10413300FA227818EF2FFFEE33FEED33FDEC33FC5C
:10414300C933C910D7059BE99A4007EC9BFCE99A50
:10415300F90FD8E0E4C9FAE4CCFB2275F010EF2F95
:10416300FFEE33FEED33FDCC33CCC833C810D70795
:104173009BEC9AE899400AED9BFDEC9AFCE899F8D0
:0E4183000FD5F0DAE4CDFBE4CCFAE4C8F92263
:0B48A90048500000000000000000006C
:10465D00CBEFCBCAEECAC3ED9428EC940050057E87
:10466D00007F0022EB4A7008FA7B01ED1D70011CE2
:10467D00905000EAF0A3EBF0A3ECF0A3EDF0905016
:10468D0000E0FEA3E0FFF5828E83E4F0A3F0ED24BD
:10469D00FCFDEC34FF8F828E83A3A3F0A3EDF07E9F
:0446AD00FF7FFF226A
:00000001FF
