:100080007FFE120119907FA5E020E6F9907FA5740C
:1000900080F0A374A2F0907FA5E030E0F9E4907FB7
:1000A000A6F0907FA5E030E0F9E4907FA6F0907F85
:1000B000A5E030E0F9907FA674B0F0907FA5E03025
:1000C000E0F9907FA67447F0907FA5E030E0F990CA
:1000D0007FA67405F0907FA5E030E0F9907FA674CC
:1000E00080F0907FA5E030E0F9E4907FA6F0907F6B
:1000F000A5E030E0F9907FA67401F0907FA5E03094
:10010000E0F9E4907FA6F0907FA5E030E0F9907FE1
:09011000A57440F07FF70201190B
:10011900907FA5E020E6F9907FA57480F0A3744252
:10012900F0907FA5E030E0F9907FA6EFF0907FA5F1
:0B013900E030E0F9907FA57440F02258
:03000000020144B6
:0C014400787FE4F6D8FD7581070200808A
:00000001FF
